:100000003FC059C058C071C09CC055C054C053C0F7
:1000100052C051C050C04FC0B7C04DC04CC04BC003
:100020004AC049C048C047C046C0BFC1C3C1C7C11C
:10003000CBC1CFC1D3C1D7C1F9C1FBC101C203C27A
:1000400005C207C209C2ECC25DC367C3A7C3C1C36F
:10005000D8C3E2C3EDC312C4F505E3671776F645CE
:10006000F777D7B6F0A7F2D20077A6C34505C6F258
:10007000F5B5F28277D7C6F20086A6000037F27691
:1000800011241FBECFE5D1E0DEBFCDBF20E0A4E646
:10009000B0E001C01D92A738B207E1F710E0A0E67A
:1000A000B0E0E4EAFCE002C005900D92A436B1078E
:1000B000D9F79BD4F5C5A4CF809185009091860097
:1000C00008951FBC89E18EBD12BC80E49FE195BDFF
:1000D00084BD88EE93E09BBD8ABD88E59BE199BD18
:1000E00088BD89B7886689BF08951F920F920FB6A1
:1000F0000F9211242F933F934F935F936F937F93AE
:100100008F939F93AF93BF93EF93FF93809185005D
:1001100090918600019690938600809385007CD113
:10012000FF91EF91BF91AF919F918F917F916F91CF
:100130005F914F913F912F910F900FBE0F901F90A5
:1001400018951F920F920FB60F9211242F933F9381
:100150004F935F936F937F938F939F93AF93BF93CF
:10016000EF93FF9318D1FF91EF91BF91AF919F91C2
:100170008F917F916F915F914F913F912F910F9050
:100180000FBE0F901F9018951F920F920FB60F92EF
:1001900011242F933F934F935F936F937F938F938C
:1001A0009F93AF93BF93EF93FF9321D1FF91EF9173
:1001B000BF91AF919F918F917F916F915F914F917F
:1001C0003F912F910F900FBE0F901F9018958FEFBA
:1001D00087BB18BA81B38B6581BB82B3847A82BB3B
:1001E000929AD09AD898D99A10927200109271006F
:1001F000EDE6F0E0108211821282138210926C0000
:1002000010926B0010926A00089580916700089523
:1002100080916600089580916A00089580936B0034
:100220000895882321F080916C00806103C0809143
:100230006C008F7E80936C000895882321F080915C
:100240006C00806203C080916C008F7D80936C0095
:100250000895882321F080916C00806403C0809110
:100260006C008F7B80936C000895882321F080912F
:100270006C00806803C080916C008F7780936C0065
:100280000895CF93DF9300D000D0CDB7DEB7582FBD
:100290006A30F9F41C821B821A82198223E03AE048
:1002A000852F632FCDD3492FA1E0B0E0AC0FBD1F48
:1002B000A20FB11D892F90E0885A9F4FFC018491B5
:1002C0008C93852F841BBCD3582F21508111E8CFEC
:1002D00036C06830F1F4877090E0885A9F4FFC0177
:1002E00084918C83252F287330E083E03595279502
:1002F0008A95E1F7285A3F4FF90184918B83E52FC6
:10030000E295E695E695E370F0E0E85AFF4F8491B8
:1003100013C0603111F5282F2F7030E0285A3F4F5D
:10032000F90184918C83E52FE295EF70F0E0E85AB3
:10033000FF4F84918B8387E98A8385EF8983F894C3
:10034000898180936D008A8180936E008B81809378
:100350006F008C818093700078940F900F900F90B5
:100360000F90DF91CF910895FC014591ADE6B0E08B
:100370004C93249111962C9311979C012E5F3F4F23
:10038000F901249112962C9312970396FC01849103
:1003900013968C930895E0917100F0917200E7300C
:1003A000F10520F5EB5EFF4F099480916D0088BB4D
:1003B000919A089580916E0088BB909A08958091DB
:1003C0006F0088BB949A08958091700088BB969ABC
:1003D000089580916B0088BBD89A089580916C0035
:1003E00088BB939A089517BA8FEF88BB08958091C0
:1003F0007100909172008630910518F0069739F0DF
:10040000089518BA82B3847282BBD898089586B3CF
:10041000809580936A000895E0917100F0917200D8
:10042000E730F10500F5E45EFF4F099481E090E0CC
:1004300002C082E090E0909372008093710013C03C
:1004400083E090E0F8CF84E090E0F5CF85E090E0A5
:10045000F2CF86E090E0EFCF18BA8FEF87BB109213
:1004600072001092710080916800882321F08091C1
:100470006800815011C0C99B07C080916600882325
:1004800069F01092660007C080916600811106C075
:1004900081E0809366008AE0809368008091690023
:1004A000882321F080916900815011C0829B07C090
:1004B00080916700882369F01092670007C08091DF
:1004C0006700811106C081E0809367008AE0809315
:1004D00069000895109275001092740010927300D4
:1004E00080E09FCECF9397DEC82F98DE8091740076
:1004F0009091750081309105F1F018F00297B9F1F3
:100500004DC081E09ADE80E0A4DE80E0AEDE68E0EF
:100510008C2FB7DE7DDE882321F081E0809373008D
:100520003EC0809173008823D1F172DE811137C003
:1005300021E030E015C080E080DE81E08ADE80E0EE
:1005400094DE6AE08C2F9DDE63DE8111E6CF809120
:100550007300882321F15CDE811121C022E030E0AC
:1005600030937500209374001092730019C080E0DE
:1005700064DE80E06EDE81E078DE60E18C2F81DE7B
:1005800047DE8111CACF80917300882341F040DE9D
:10059000811105C01092730081E002C09BDF80E0F2
:1005A000CF91089580917F00883011F481E001C0DF
:1005B00080E043DE80917F008A3011F481E001C049
:1005C00080E047DE80917F00803111F481E001C03E
:1005D00080E04BCE10928100109280006DDD9093F0
:1005E00079008093780010927E0010927D0088E060
:1005F00080937F00A5D180937600D4DF81E011CE77
:10060000CF93DF9308DED82F09DEE0918000F091D0
:100610008100E930F10508F065C1ED5DFF4F0994F7
:100620004BDD2091780030917900821B930B803D47
:10063000974020F488E690E097DE14C03DDD2091DD
:10064000780030917900821B930B803A9F4028F408
:100650006AE08091760015DE05C02EDD909379006A
:1006600080937800D5DD882321F081E080937E009F
:100670002AC080917E00882331F1CADD811123C018
:1006800010927E0080917F00883011F48AE003C0D0
:100690008A30A1F480E180937F0080917F0050D167
:1006A0008093760010927E0010927D007BDF81E0C7
:1006B000B8DD109281001092800005C088E0809320
:1006C0007F00C1E010C1A1DD882321F081E080938B
:1006D0007D0008C180917D00882309F403C195DD68
:1006E000C82F8111FFC010927D00E6DCFAD1109274
:1006F0007B0010927A0081E090E0909381008093DB
:100700008000F1C0EAD180937C00D6DC9093790020
:100710008093780082E090E0ACC060917F0080918F
:100720007C00AFDD72DD882321F081E080937D00C5
:1007300022C080917D008823F1F067DDC82F8111F0
:100740001AC080917C00D81308C0B6DC9093790061
:100750008093780083E090E007C0AEDC909379004E
:100760008093780084E090E09093810080938000F3
:1007700010927D00B8C0A0DC209178003091790003
:10078000821B930B81329E4408F4ACC095DC90939D
:1007900079008093780085E090E06BC08CE790E072
:1007A000E3DD8ADC2091780030917900821B930B85
:1007B000813D974008F496C0809177008F5F8093C9
:1007C000770080917A008F5F80937A008831B0F053
:1007D0001BC088E790E0C8DD6FDC20917800309185
:1007E0007900821B930B813D974008F47BC0809178
:1007F0007B008F5F80937B00833030F481E090E05A
:1008000038C08CE690E0E7CF57DC90937900809376
:10081000780086E090E02DC080917700909176007E
:10082000981718F460917F0078D087E090E021C09D
:1008300043DC2091780030917900821B930B883E35
:10084000934018F484E790E00CC036DC20917800E7
:1008500030917900821B930B803D974020F480E714
:1008600090E082DD3FC010927D0010927E0088E013
:1008700090E0909381008093800034C06AE0809182
:100880007700FFDCC5DC882321F081E080937E00C7
:1008900012C080917E00882371F0BADC81110BC0F8
:1008A00010927E0009DC909379008093780010927A
:1008B000810010928000A9DC811108CF80917D0019
:1008C000882381F0A2DCC82F81110CC010927D001A
:1008D000F3DB90937900809378001092810010925E
:1008E000800001C0C0E08C2FDF91CF91089581E09E
:1008F00090E002D1823481F060E082E090E003D1A8
:1009000060E083E090E0FFD060E084E090E0FBD026
:1009100062E481E090E0F7C00895683021F4682F28
:1009200082E090E00BC06A3021F4682F83E090E011
:1009300005C0603121F4682F84E090E0E4C00895A0
:10094000883019F482E090E009C08A3019F483E01D
:1009500090E004C0803119F484E090E0CDC080E0E4
:10096000089516BE82E38CBF85E083BF83B788609D
:1009700083BF80B7836480BF10928400109283008D
:10098000089540938200633019F0643041F48695F5
:100990008CBF83B7887F83BF83B7846008C065300E
:1009A00039F48CBF83B7887F83BF83B7836083BFED
:1009B00086B7869586BF08957FDB209183003091AE
:1009C0008400821B930B2091820030E028173907A6
:1009D00018F41092820016BE089596B781E0911126
:1009E00001C080E0089516BE08951092860010920E
:1009F0008500EDDB66DB7BDF78941092650010925A
:100A0000640068DDC1E0D0E08091640090916500F1
:100A1000009719F0019751F00CC064DD882371F044
:100A2000D0936500C0936400D5DD08C0E9DD88235C
:100A300029F010926500109264004CDDBDDFE4CF18
:100A4000991B79E004C0991F961708F0961B881F20
:100A50007A95C9F780950895A0E0B0E0E1E3F5E06C
:100A60009EC0EC01688179818A819B816115710545
:100A70008105910521F464E279ED8BE597E02DE1A4
:100A800033EF41E050E04CD049015A0127EA31E40C
:100A900040E050E061D069017A01C501B4012CEE5B
:100AA00034EF4FEF5FEF58D0022F132F9A01D70189
:100AB000C601800F911FA21FB31FB7FF03C001978C
:100AC000A109B04888839983AA83BB839F77CDB758
:100AD000DEB7ECE080C0C0DF089580E690E0BCDFC8
:100AE0000895A0E0B0E08093600090936100A0932F
:100AF0006200B09363000895E199FECF8EBBE09A47
:100B000099278DB30895262FE199FECF1CBA8EBB8D
:100B10002DBB0FB6F894E29AE19A0FBE01960895A4
:100B2000052E97FB16F400940FD057FD05D068D022
:100B300007FC02D046F408C05095409530952195A9
:100B40003F4F4F4F5F4F08959095809570956195F9
:100B50007F4F8F4F9F4F089568940013E894A0E053
:100B6000B0E0E4EBF5E01DC0EFEFE7F959016A01F1
:100B70005E23550FEE08FE2C87019B01AC019E23DE
:100B8000990F660B762FCB015DD0CDB7DEB7EAE0CB
:100B900024C02F923F924F925F926F927F928F92DA
:100BA0009F92AF92BF92CF92DF92EF92FF920F93FC
:100BB0001F93CF93DF93CDB7DEB7CA1BDB0B0FB606
:100BC000F894DEBF0FBECDBF09942A8839884888C3
:100BD0005F846E847D848C849B84AA84B984C88459
:100BE000DF80EE80FD800C811B81AA81B981CE0F50
:100BF000D11D0FB6F894DEBF0FBECDBFED01089535
:100C0000A1E21A2EAA1BBB1BFD010DC0AA1FBB1F10
:100C1000EE1FFF1FA217B307E407F50720F0A21B82
:100C2000B30BE40BF50B661F771F881F991F1A94EF
:100C300069F760957095809590959B01AC01BD0119
:100C4000CF010895DF93CF939F92A0E49A2E0024C2
:100C5000D001E001F00116950795F794E794D79439
:100C6000C794B794A79448F41068A20FB31FC41F89
:100C7000D51FE61FF71F081E191E220F331F441F22
:100C8000551F661F771F881F991F9A9421F79D0192
:100C9000AE01BF01C00111249F90CF91DF91089553
:040CA000F894FFCFF6
:040CA400010000004B
:00000001FF
