:1000000051C06BC06AC083C0AEC067C066C065C067
:1000100064C063C062C061C0C9C05FC05EC05DC073
:100020005CC05BC05AC059C058C0D1C1D5C1D9C18C
:10003000DDC1E1C1E5C1E9C10BC20DC213C215C2E8
:1000400017C219C21BC215C391C39BC3F6C345C4D3
:100050006AC498C47DC4A1C4B6C4C5C424C500F58F
:10006000860000F5D2D200000000B60586D78237A0
:100070000077D7C6F2000DF500000000F505E36734
:100080001776F645F777D7B6F0A7F2D20077A6C372
:100090004505C6F2F5B5F28277D7C6F20086A6000E
:1000A0000037F27611241FBECFE5D1E0DEBFCDBF11
:1000B00020E0A4E6B0E001C01D92A738B207E1F746
:1000C00010E0A0E6B0E0E0EFFFE002C005900D9286
:1000D000A436B107D9F7D2D589C792CF80918500D0
:1000E0009091860008951FBC89E18EBD12BC80E40A
:1000F0009FE195BD84BD88EE93E09BBD8ABD88E5F8
:100100009BE199BD88BD89B7886689BF08951F9214
:100110000F920FB60F9211242F933F934F935F933B
:100120006F937F938F939F93AF93BF93EF93FF93BF
:10013000809185009091860001969093860080932F
:1001400085007CD1FF91EF91BF91AF919F918F91ED
:100150007F916F915F914F913F912F910F900FBEC3
:100160000F901F9018951F920F920FB60F921124A7
:100170002F933F934F935F936F937F938F939F93AF
:10018000AF93BF93EF93FF9318D1FF91EF91BF917E
:10019000AF919F918F917F916F915F914F913F911F
:1001A0002F910F900FBE0F901F9018951F920F92D6
:1001B0000FB60F9211242F933F934F935F936F933A
:1001C0007F938F939F93AF93BF93EF93FF9321D12F
:1001D000FF91EF91BF91AF919F918F917F916F911F
:1001E0005F914F913F912F910F900FBE0F901F90F5
:1001F00018958FEF87BB18BA81B38B6781BB82B329
:10020000847A82BB929AD09AD898D99A1092720026
:1002100010927100EDE6F0E01082118212821382DA
:1002200010926C0010926B0010926A0008958091F9
:100230006700089580916600089580916A0008958E
:1002400080936B000895882321F080916C00806179
:1002500003C080916C008F7E80936C00089588238A
:1002600021F080916C00806203C080916C008F7DD2
:1002700080936C000895882321F080916C00806445
:1002800003C080916C008F7B80936C00089588235D
:1002900021F080916C00806803C080916C008F77A2
:1002A00080936C000895CF93DF9300D000D0CDB73A
:1002B000DEB7582F6A30F9F41C821B821A824983F8
:1002C00023E03AE0852F632F61D5492FA1E0B0E00C
:1002D000AC0FBD1FA20FB11D892F90E084589F4F16
:1002E000FC0184918C93852F841B50D5582F21506D
:1002F0008111E8CF36C06830F1F4877090E08458FF
:100300009F4FFC0184918C83252F287330E083E07C
:10031000359527958A95E1F724583F4FF901849147
:100320008B83E52FE295E695E695E370F0E0E458DF
:10033000FF4F849113C0603111F5282F2F7030E0EA
:1003400024583F4FF90184918C83E52FE295EF709B
:10035000F0E0E458FF4F84918B8387E98A8385EF2F
:100360008983F894898180936D008A8180936E00DF
:100370008B8180936F008C818093700078940F90B4
:100380000F900F900F90DF91CF910895FC01459150
:10039000ADE6B0E04C93249111962C9311979C01FB
:1003A0002E5F3F4FF901249112962C9312970396DA
:1003B000FC01849113968C930895E0917100F09163
:1003C0007200E730F10520F5EB5EFF4F0994809154
:1003D0006D0088BB919A089580916E0088BB909AB9
:1003E000089580916F0088BB949A08958091700061
:1003F00088BB969A089580916B0088BBD89A08951F
:1004000080916C0088BB939A089517BA8FEF88BBD0
:10041000089580917100909172008630910518F0D6
:10042000069739F0089518BA82B3847282BBD898BF
:10043000089586B3809580936A000895E0917100D5
:10044000F0917200E730F10500F5E45EFF4F09948A
:1004500081E090E002C082E090E09093720080938F
:10046000710013C083E090E0F8CF84E090E0F5CF16
:1004700085E090E0F2CF86E090E0EFCF18BA8FEF02
:1004800087BB1092720010927100809168008823DF
:1004900021F080916800815011C0C99B07C08091F4
:1004A0006600882369F01092660007C0809166009C
:1004B000811106C081E0809366008AE08093680025
:1004C00080916900882321F080916900815011C0DA
:1004D000829B07C080916700882369F010926700B3
:1004E00007C080916700811106C081E0809367009A
:1004F0008AE080936900089510927500109274004C
:100500001092730080E09FDE4AEF50E064E08FEECF
:100510005BC3CF9392DEC82F93DE809174009091DD
:1005200075008130910511F120F0029709F441C066
:100530005DC081E094DE80E09EDE80E0A8DE40E0E9
:1005400068E08C2FB0DE76DE882321F081E0809396
:1005500073004DC080917300882309F448C06ADE9F
:10056000C82F811144C081E090E017C080E077DEA1
:1005700081E081DE80E08BDE40E06AE08C2F93DE5C
:1005800059DE8111E3CF80917300882381F152DE1F
:10059000C82F81112CC082E090E090937500809369
:1005A0007400109273004AEF50E064E08FEE0CD3B9
:1005B0001FC080E054DE80E05EDE81E068DE40E067
:1005C00060E18C2F70DE36DE8111C0CF8091730028
:1005D000882369F02FDE81110AC0109273004AEF60
:1005E00050E064E08FEEF0D2C1E002C085DFC0E0F1
:1005F0008C2FCF91089580917E00883011F481E096
:1006000001C080E02CDE80917E008A3011F481E010
:1006100001C080E030DE80917E00803111F481E005
:1006200001C080E034CE1092800010927F0056DD31
:10063000909379008093780010927D0010927C0056
:1006400088E080937E0096D280937600D4DF81E0AC
:10065000FACDCF93DF93F1DDD82FF2DDE0917F006B
:10066000F0918000EC30F10508F052C2ED5DFF4FD3
:10067000099434DD2091780030917900821B930B2E
:10068000803D974020F48CE890E080DE15C026DDA8
:100690002091780030917900821B930B803A9F4023
:1006A00030F446E96AE080917600FDDD05C016DD94
:1006B0009093790080937800BDDD882321F081E05C
:1006C00080937D0034C080917D00882381F1B2DD6C
:1006D00081112DC010927D0080917E00883011F430
:1006E0008AE003C08A30F1F480E180937E0080913B
:1006F0007E0040D28093760010927D0010927C00A4
:100700007ADF81E0A0DD4AEF50E064E08FEE5CD25A
:100710001092800010927F00E1DC9093790080932A
:10072000780005C088E080937E00C1E0F2C17FDDE3
:10073000882321F081E080937C00EAC180917C00D5
:10074000882309F4E5C173DDC82F8111E1C110923E
:100750007C00C4DC6CD310927A001092770081E0A8
:1007600090E09093800080937F00D3C15CD380930E
:100770007B00B4DC909379008093780082E090E075
:100780008DC140E060917E0080917B008CDD4FDD6B
:10079000882321F081E080937C0027C080917C0039
:1007A000882319F144DDC82F81111FC080917B007F
:1007B000D81308C093DC909379008093780083E08D
:1007C00090E00CC042EE54E062E08FEEFDD186DC9A
:1007D000909379008093780086E090E09093800079
:1007E00080937F0010927C0094C178DC2091780087
:1007F00030917900821B930B88279C7F892B29F4E9
:1008000046E950E062E083EBDFD168DC20917800BC
:1008100030917900821B930B81329E4408F478C199
:100820005DDC909379008093780042EE54E062E0C2
:100830008FEECAD188E090E031C180EA90E0A6DD79
:100840004DDC20917800309179008217930729F4CC
:1008500040E951E063E08FEE2CC040DC209178004D
:1008600030917900821B930B843F914029F440E939
:1008700051E063E085ED1DC031DC209178003091BE
:100880007900821B930B883E934029F440E951E0A4
:1008900063E08EEB0EC022DC20917800309179006D
:1008A000821B930B8C3D954029F440E951E063E0B5
:1008B00083EB8AD113DC2091780030917900821B80
:1008C000930B813D974008F423C108DC9093790095
:1008D0008093780084E090E0E1C040E06AE080919D
:1008E0007700E1DCFBDB2091780030917900821BFE
:1008F000930B893E934008F40BC1809177008F5F82
:1009000080937700EBDB909379008093780085E00B
:1009100090E09093800080937F004AEF50E063E086
:1009200083EB52D1F5C040E06AE080917700BBDCF8
:10093000D5DB2091780030917900821B930B893EA2
:10094000934008F4E5C0809177008831C0F01DC065
:1009500040E06AE080917700A6DCC0DB209178005F
:1009600030917900821B930B893E934008F4D0C0EC
:1009700080917A008F5F80937A00833030F481E039
:1009800090E08CC08CE990E00AC0A8DB90937900DD
:100990008093780089E090E081C080E990E0F6DC07
:1009A0009DDB2091780030917900821B930B813D73
:1009B000974008F4ADC092DB909379008093780063
:1009C00087E090E06BC08091770090917600981757
:1009D00038F460917E00BBD08091770080937600E0
:1009E0008AE090E05BC07ADB20917800309179005A
:1009F0008217930729F440E951E063E083EB2CC0B0
:100A00006DDB2091780030917900821B930B843F3D
:100A1000914029F440E951E063E08EEB1DC05EDBBC
:100A20002091780030917900821B930B883E93408F
:100A300029F440E951E063E085ED0EC04FDB2091E1
:100A4000780030917900821B930B8C3D954029F4FE
:100A500040E951E063E08FEEB7D040DB20917800B1
:100A600030917900821B930B883E934018F488E9FB
:100A700090E00CC033DB2091780030917900821B2C
:100A8000930B803D974020F484E990E07FDC40C0E8
:100A900010927C0010927D008BE090E0909380009B
:100AA00080937F0035C040E06AE080917700FBDBF7
:100AB000C1DB882321F081E080937D0012C080910A
:100AC0007D00882371F0B6DB81110BC010927D0090
:100AD00005DB90937900809378001092800010924B
:100AE0007F00A5DB811126CE80917C00882381F0D8
:100AF0009EDBC82F81110CC010927C00EFDA90931E
:100B00007900809378001092800010927F0001C0DD
:100B1000C0E08C2FDF91CF91089581E090E092D1D9
:100B20008234A1F060E082E090E093D160E083E065
:100B300090E08FD160E084E090E08BD161E085E0CF
:100B400090E087D162E481E090E083C1089568304D
:100B500021F4682F82E090E00BC06A3021F4682F06
:100B600083E090E005C0603121F4682F84E090E0DC
:100B700070C10895883019F482E090E009C08A308D
:100B800019F483E090E004C0803119F484E090E02F
:100B900059C180E00895682F85E090E05AC185E052
:100BA00090E050C18FEF8CBF82E386BF85E083BFAA
:100BB00083B7886083BF80B7836380BF109284004F
:100BC000109283008D9A08951F93CF93DF931F9205
:100BD000CDB7DEB7182F5093820040938100698310
:100BE0007DDA90938400809383006981623049F4B8
:100BF000812F869586BF83B7887F83BF83B7856043
:100C000017C0633011F416BF05C0643049F4812F5A
:100C1000869586BF83B7887F83BF83B7846008C00B
:100C2000653039F416BF83B7887F83BF83B783608D
:100C300083BF86B786958CBF0F90DF91CF911F91B0
:100C400008954CDA2091830030918400821B930B2D
:100C500020918100309182002817390730F41092DA
:100C60008200109281008FEF8CBF08959CB781E0C5
:100C7000911101C080E008951CBE08951092860075
:100C800010928500B6DA2FDA48DF89DFC82F829903
:100C900012C0882331F01092650010926400C0E009
:100CA00007C081E090E09093650080936400C1E00C
:100CB0008C2F71DF06C082E090E0909365008093F6
:100CC0006400C1116FDF7894C0918500D0918600D7
:100CD00010E083E0E82EF12C94E0A92EB12C22E064
:100CE000C22ED12C809164009091650082309105D4
:100CF00021F140F4009761F0019709F040C08EE5C2
:100D000090E008C08330910571F10497A9F137C0D4
:100D100082E690E03BDB80918500909186008C1B01
:100D20009D0B8B3F910580F1C0918500D09186008D
:100D3000D0926500C092640027C0812F90E08A594C
:100D40009F4F24DB80918500909186008C1B9D0B2A
:100D50008B3F9105C8F0C0918500D09186001F5F40
:100D6000133190F00CC0D5DB882371F0B092650090
:100D7000A092640058DC08C06CDC882329F0F09253
:100D80006500E0926400B8DB5CDFACCF991B79E0D2
:100D900004C0991F961708F0961B881F7A95C9F70B
:100DA00080950895A0E0B0E0E7EDF6E09EC0EC018C
:100DB000688179818A819B81611571058105910521
:100DC00021F464E279ED8BE597E02DE133EF41E02A
:100DD00050E04CD049015A0127EA31E440E050E0AC
:100DE00061D069017A01C501B4012CEE34EF4FEFF7
:100DF0005FEF58D0022F132F9A01D701C601800F41
:100E0000911FA21FB31FB7FF03C00197A109B048EC
:100E100088839983AA83BB839F77CDB7DEB7ECE045
:100E200080C0C0DF089580E690E0BCDF0895A0E0B8
:100E3000B0E08093600090936100A0936200B09353
:100E400063000895E199FECF8EBBE09A99278DB398
:100E50000895262FE199FECF1CBA8EBB2DBB0FB68D
:100E6000F894E29AE19A0FBE01960895052E97FB39
:100E700016F400940FD057FD05D068D007FC02D0BF
:100E800046F408C050954095309521953F4F4F4FFF
:100E90005F4F089590958095709561957F4F8F4F26
:100EA0009F4F089568940013E894A0E0B0E0EAE54D
:100EB000F7E01DC0EFEFE7F959016A015E23550F16
:100EC000EE08FE2C87019B01AC019E23990F660B57
:100ED000762FCB015DD0CDB7DEB7EAE024C02F92EC
:100EE0003F924F925F926F927F928F929F92AF92BA
:100EF000BF92CF92DF92EF92FF920F931F93CF9307
:100F0000DF93CDB7DEB7CA1BDB0B0FB6F894DEBF9D
:100F10000FBECDBF09942A88398848885F846E84C3
:100F20007D848C849B84AA84B984C884DF80EE800D
:100F3000FD800C811B81AA81B981CE0FD11D0FB616
:100F4000F894DEBF0FBECDBFED010895A1E21A2EC9
:100F5000AA1BBB1BFD010DC0AA1FBB1FEE1FFF1F5D
:100F6000A217B307E407F50720F0A21BB30BE40BAD
:100F7000F50B661F771F881F991F1A9469F76095F4
:100F80007095809590959B01AC01BD01CF010895AE
:100F9000DF93CF939F92A0E49A2E0024D001E0012A
:100FA000F00116950795F794E794D794C794B794F2
:100FB000A79448F41068A20FB31FC41FD51FE61FE3
:100FC000F71F081E191E220F331F441F551F661FCF
:100FD000771F881F991F9A9421F79D01AE01BF01C9
:100FE000C00111249F90CF91DF910895F894FFCF15
:040FF00001000000FC
:00000001FF
