:100000003EC058C057C056C09BC06EC053C052C0FF
:1000100051C050C04FC04EC0B6C04CC04BC04AC00B
:1000200049C048C047C046C045C0ACC1B0C1B4C15A
:10003000B8C1BCC1C0C1C4C1E5C1E7C1EDC1EFC118
:10004000F1C1F3C1F5C1CFC21AC324C36FC390C3BA
:10005000A7C3B1C3D6C3F505E3671776F645F777AF
:10006000D7B6F0A7F2D20077A6C34505C6F2F5B51C
:10007000F28277D7C6F20086A6000037F276112406
:100080001FBECFE5D1E0DEBFCDBF20E0A4E6B0E0EB
:1000900001C01D92A538B207E1F710E0A0E6B0E07C
:1000A000E6E1FBE002C005900D92A436B107D9F756
:1000B000D7D32FC5A5CF8091830090918400089558
:1000C0001FBC89E18EBD12BC80E49FE195BD84BD5B
:1000D00088EE93E09BBD8ABD88E59BE199BD88BD14
:1000E00089B7806E89BF08951F920F920FB60F9245
:1000F00011242F933F934F935F936F937F938F932D
:100100009F93AF93BF93EF93FF9380918300909160
:1001100084000196909384008093830069D1FF91BD
:10012000EF91BF91AF919F918F917F916F915F916F
:100130004F913F912F910F900FBE0F901F901895E8
:100140001F920F920FB60F9211242F933F934F934C
:100150005F936F937F938F939F93AF93BF93EF932F
:10016000FF9306D1FF91EF91BF91AF919F918F9136
:100170007F916F915F914F913F912F910F900FBEA3
:100180000F901F9018951F920F920FB60F92112487
:100190002F933F934F935F936F937F938F939F938F
:1001A000AF93BF93EF93FF930FD1FF91EF91BF9167
:1001B000AF919F918F917F916F915F914F913F91FF
:1001C0002F910F900FBE0F901F9018958FEF87BB48
:1001D00018BA81B38B6581BB82B3847A82BB929A51
:1001E000D09AD898DD9A1092720010927100EDE6C4
:1001F000F0E0108211821282138210926C00109231
:100200006B0010926A0008958091670008958091B4
:100210006600089580916A00089580936B000895A8
:10022000882321F080916C00806103C080916C0074
:100230008F7E80936C000895882321F080916C005C
:10024000806203C080916C008F7D80936C00089564
:10025000882321F080916C00806403C080916C0041
:100260008F7B80936C000895882321F080916C002F
:10027000806803C080916C008F7780936C00089534
:10028000582F6A3009F51092700010926F0010928A
:100290006E0010926D0023E03AE0852F632F09D3A2
:1002A000492FA22FB0E0892F90E08A5A9F4FFC017E
:1002B0008491A359BF4F8C93852F841BFAD2582F5A
:1002C00021508111EACF0895683001F5877090E0E0
:1002D0008A5A9F4FFC01849180937000252F2873C8
:1002E00030E083E0359527958A95E1F72A5A3F4F0C
:1002F000F901849180936F00E52FE295E695E695EC
:10030000E370F0E0EA5AFF4F849115C06031C1F408
:10031000282F2F7030E02A5A3F4FF90184918093A3
:100320007000E52FE295EF70F0E0EA5AFF4F8491FC
:1003300080936F0087E980936E0085EF80936D0056
:100340000895FC014591ADE6B0E04C9324911196DF
:100350002C9311979C012E5F3F4FF9012491129627
:100360002C9312970396FC01849113968C93089515
:10037000E0917100F0917200E730F10520F5EB5E3D
:10038000FF4F099480916D0088BB919A08958091E8
:100390006E0088BB909A089580916F0088BB949AF4
:1003A00008958091700088BB969A089580916B00A3
:1003B00088BBD89A089580916C0088BB939A089561
:1003C00017BA8FEF88BB08958091710090917200E9
:1003D0008630910518F0069739F0089518BA82B35F
:1003E000847282BBD898089586B380936A0008957A
:1003F000E0917100F0917200E730F10500F5E45EE4
:10040000FF4F099481E090E002C082E090E0909379
:1004100072008093710013C083E090E0F8CF84E015
:1004200090E0F5CF85E090E0F2CF86E090E0EFCF6E
:1004300018BA8FEF86BB10927200109271008091F3
:100440006800882321F080916800815011C0D99BF9
:1004500007C080916600882369F01092660007C08B
:1004600080916600811106C081E0809366008AE079
:100470008093680080916900882321F08091690051
:10048000815012C082B3837039F080916700882355
:1004900069F01092670007C080916700811106C063
:1004A00081E0809367008AE080936900089510924C
:1004B0007500109274001092730080E0B1CECF935B
:1004C000A9DEC82FAADE809174009091750081305A
:1004D0009105F9F018F00297C9F14AC081E0ACDE4D
:1004E00080E0B6DE80E0C0DE68E08C2FC9DE8FDE03
:1004F000882321F081E0809373003BC080917300DA
:100500008823B9F184DE982F811133C021E030E0D7
:1005100016C080E091DE81E09BDE80E0A5DE6AE02F
:100520008C2FAEDE74DE8111E5CF809173008823BD
:1005300001F16DDE982F81111CC022E030E0309374
:100540007500209374001092730014C080E074DE74
:1005500080E07EDE81E088DE5ADE8111CBCF8091A3
:100560007300882331F053DE91E0882319F001C035
:100570009EDF90E0892FCF91089580918000883090
:1005800011F481E001C080E057DE809180008A3064
:1005900011F481E001C080E05BDE80918000803159
:1005A00011F481E001C080E05FCE109282001092D1
:1005B000810010927F0010927E0088E0809380007E
:1005C000DCDF81E02DCECF93DF9324DED82F25DE34
:1005D000E0918100F0918200E830F10508F03BC124
:1005E000ED5DFF4F099486E690E0ABDE10DE8823D8
:1005F00021F081E080937F0023C080917F008823D9
:10060000F9F005DE81111CC010927F0080918000FE
:10061000883011F48AE003C08A3069F480E1809365
:10062000800010927E00A9DF81E0FADD1092820046
:100630001092810005C088E080938000C1E00CC169
:10064000E3DD882321F081E080937E0004C1809166
:100650007E00882309F4FFC0D7DDC82F8111FBC0BD
:1006600010927E0028DD8AD110927C0010927B00CF
:1006700081E090E09093820080938100EDC07AD178
:1006800080937D0018DD909378008093770082E05E
:1006900090E0B2C06091800080917D00F1DDB4DD1A
:1006A000882321F081E080937E002DC080917E0020
:1006B000882349F1ACDDC82F811125C080917D00D0
:1006C000D81313C0F8DC2091770030917800821B9A
:1006D000930B90937A0080937900EDDC90937800EF
:1006E0008093770083E090E007C0E5DC909378008A
:1006F0008093770084E090E0909382008093810063
:1007000010927E00A9C0D7DC20917700309178004C
:10071000821B930B8131974208F49DC0CCDC9093EF
:1007200078008093770085E090E066C08AE790E0EB
:1007300008DEC1DC2091770030917800821B930B9A
:10074000813D974008F487C08091790090917A00AC
:1007500068EE73E0BAD080917600680F60937600FF
:1007600080917B008F5F80937B008831B0F01BC04D
:1007700086E790E0E6DD9FDC2091770030917800FD
:10078000821B930B813D974008F465C080917C00EB
:100790008F5F80937C00833030F481E090E02CC048
:1007A0008AE690E0E7CF87DC90937800809377002B
:1007B00086E090E021C07FDC2091770030917800C6
:1007C000821B930B883E934018F482E790E00CC0A4
:1007D00072DC2091770030917800821B930B803D72
:1007E000974020F48EE690E0ACDD35C010927E009C
:1007F00010927F0087E090E09093820080938100C8
:100800002AC06AE0809176003BDD01DD882321F07B
:1008100081E080937F000DC080917F00882349F0A4
:10082000F6DC811106C010927F00109282001092B7
:100830008100EADC811107CF80917E00882359F086
:10084000E3DCC82F811107C010927E001092820055
:100850001092810001C0C0E08C2FDF91CF910895EC
:100860001092840010928300B1DC2ADC78941092FC
:100870006500109264001BDEC1E0D0E0809164004E
:1008800090916500009719F0019751F00CC017DEA8
:100890008823A1F3D0936500C093640086DEEECF79
:1008A00092DE882359F31092650010926400FFDDF8
:1008B000E5CF991B79E004C0991F961708F0961BA5
:1008C000881F7A95C9F780950895AA1BBB1B51E133
:1008D00007C0AA1FBB1FA617B70710F0A61BB70BB0
:1008E000881F991F5A95A9F780959095BC01CD0155
:1008F0000895A0E0B0E0EEE7F4E08AC0EC01688182
:1009000079818A819B81611571058105910521F4A9
:1009100064E279ED8BE597E02DE133EF41E050E0C3
:1009200038D049015A0127EA31E440E050E04DD087
:1009300069017A01C501B4012CEE34EF4FEF5FEF8E
:1009400044D0022F132F9A01D701C601800F911FA7
:10095000A21FB31FB7FF03C00197A109B048888346
:100960009983AA83BB839F77CDB7DEB7ECE06CC0D9
:10097000C0DF089580E690E0BCDF0895A0E0B0E01D
:100980008093600090936100A0936200B093630035
:100990000895052E97FB16F400940FD057FD05D04F
:1009A00068D007FC02D046F408C0509540953095B9
:1009B00021953F4F4F4F5F4F0895909580957095CB
:1009C00061957F4F8F4F9F4F089568940013E8946F
:1009D000A0E0B0E0EDEEF4E01DC0EFEFE7F9590163
:1009E0006A015E23550FEE08FE2C87019B01AC01C6
:1009F0009E23990F660B762FCB015DD0CDB7DEB766
:100A0000EAE024C02F923F924F925F926F927F92C2
:100A10008F929F92AF92BF92CF92DF92EF92FF920E
:100A20000F931F93CF93DF93CDB7DEB7CA1BDB0BBA
:100A30000FB6F894DEBF0FBECDBF09942A8839885F
:100A400048885F846E847D848C849B84AA84B98466
:100A5000C884DF80EE80FD800C811B81AA81B98172
:100A6000CE0FD11D0FB6F894DEBF0FBECDBFED0186
:100A70000895A1E21A2EAA1BBB1BFD010DC0AA1FDF
:100A8000BB1FEE1FFF1FA217B307E407F50720F0F7
:100A9000A21BB30BE40BF50B661F771F881F991F72
:100AA0001A9469F760957095809590959B01AC01BB
:100AB000BD01CF010895DF93CF939F92A0E49A2EBA
:100AC0000024D001E001F00116950795F794E79412
:100AD000D794C794B794A79448F41068A20FB31F93
:100AE000C41FD51FE61FF71F081E191E220F331F34
:100AF000441F551F661F771F881F991F9A9421F75F
:100B00009D01AE01BF01C00111249F90CF91DF91E3
:060B10000895F894FFCFE8
:040B160001000000DA
:00000001FF
