:100000003FC059C058C057C09CC06FC054C053C0F7
:1000100052C051C050C04FC0B7C04DC04CC04BC003
:100020004AC049C048C047C046C0ADC1B1C1B5C152
:10003000B9C1BDC1C1C1C5C1E6C1E8C1EEC1F0C110
:10004000F2C1F4C1F6C1D8C249C353C39EC3BFC3F2
:10005000D6C3E0C3EBC310C4F505E3671776F645D6
:10006000F777D7B6F0A7F2D20077A6C34505C6F258
:10007000F5B5F28277D7C6F20086A6000037F27691
:1000800011241FBECFE5D1E0DEBFCDBF20E0A4E646
:10009000B0E001C01D92A638B207E1F710E0A0E67B
:1000A000B0E0EEE3FCE002C005900D92A436B1078B
:1000B000D9F755D4C2C5A4CF809184009091850012
:1000C00008951FBC89E18EBD12BC80E49FE195BDFF
:1000D00084BD88EE93E09BBD8ABD88E59BE199BD18
:1000E00088BD89B7806E89BF08951F920F920FB6A1
:1000F0000F9211242F933F934F935F936F937F93AE
:100100008F939F93AF93BF93EF93FF93809184005E
:10011000909185000196909385008093840069D129
:10012000FF91EF91BF91AF919F918F917F916F91CF
:100130005F914F913F912F910F900FBE0F901F90A5
:1001400018951F920F920FB60F9211242F933F9381
:100150004F935F936F937F938F939F93AF93BF93CF
:10016000EF93FF9306D1FF91EF91BF91AF919F91D4
:100170008F917F916F915F914F913F912F910F9050
:100180000FBE0F901F9018951F920F920FB60F92EF
:1001900011242F933F934F935F936F937F938F938C
:1001A0009F93AF93BF93EF93FF930FD1FF91EF9185
:1001B000BF91AF919F918F917F916F915F914F917F
:1001C0003F912F910F900FBE0F901F9018958FEFBA
:1001D00087BB18BA81B38B6581BB82B3847A82BB3B
:1001E000929AD09AD898DD9A10927200109271006B
:1001F000EDE6F0E0108211821282138210926C0000
:1002000010926B0010926A00089580916700089523
:1002100080916600089580916A00089580936B0034
:100220000895882321F080916C00806103C0809143
:100230006C008F7E80936C000895882321F080915C
:100240006C00806203C080916C008F7D80936C0095
:100250000895882321F080916C00806403C0809110
:100260006C008F7B80936C000895882321F080912F
:100270006C00806803C080916C008F7780936C0065
:100280000895582F6A3009F51092700010926F008F
:1002900010926E0010926D0023E03AE0852F632FDC
:1002A00088D3492FA22FB0E0892F90E0885A9F4F22
:1002B000FC018491A359BF4F8C93852F841B79D364
:1002C000582F21508111EACF0895683001F58770C9
:1002D00090E0885A9F4FFC01849180937000252FF5
:1002E000287330E083E0359527958A95E1F7285A01
:1002F0003F4FF901849180936F00E52FE295E695D9
:10030000E695E370F0E0E85AFF4F849115C0603144
:10031000C1F4282F2F7030E0285A3F4FF901849103
:1003200080937000E52FE295EF70F0E0E85AFF4F00
:10033000849180936F0087E980936E0085EF8093AE
:100340006D000895FC014591ADE6B0E04C93249119
:1003500011962C9311979C012E5F3F4FF901249128
:1003600012962C9312970396FC01849113968C930A
:100370000895E0917100F0917200E730F10520F5E9
:10038000EB5EFF4F099480916D0088BB919A0895B0
:1003900080916E0088BB909A089580916F0088BB11
:1003A000949A08958091700088BB969A08958091E0
:1003B0006B0088BBD89A089580916C0088BB939A93
:1003C000089517BA8FEF88BB0895809171009091BE
:1003D00072008630910518F0069739F0089518BA22
:1003E00082B3847282BBD898089586B380936A00E2
:1003F0000895E0917100F0917200E730F10500F589
:10040000E45EFF4F099481E090E002C082E090E05A
:10041000909372008093710013C083E090E0F8CF56
:1004200084E090E0F5CF85E090E0F2CF86E090E0C8
:10043000EFCF18BA8FEF86BB109272001092710046
:1004400080916800882321F080916800815011C05C
:10045000D99B07C080916600882369F010926600DE
:1004600007C080916600811106C081E0809366001C
:100470008AE08093680080916900882321F0809150
:100480006900815012C082B3837039F08091670097
:10049000882369F01092670007C08091670081117E
:1004A00006C081E0809367008AE080936900089528
:1004B00010927500109274001092730080E0B1CE1B
:1004C000CF93A9DEC82FAADE8091740090917500A9
:1004D00081309105F9F018F00297C9F14AC081E026
:1004E000ACDE80E0B6DE80E0C0DE68E08C2FC9DEE6
:1004F0008FDE882321F081E0809373003BC08091E0
:1005000073008823B9F184DE982F811133C021E074
:1005100030E016C080E091DE81E09BDE80E0A5DE69
:100520006AE08C2FAEDE74DE8111E5CF809173001E
:10053000882301F16DDE982F81111CC022E030E08C
:1005400030937500209374001092730014C080E003
:1005500074DE80E07EDE81E088DE5ADE8111CBCF62
:1005600080917300882331F053DE91E0882319F0E5
:1005700001C09EDF90E0892FCF9108958091810086
:10058000883011F481E001C080E057DE8091810065
:100590008A3011F481E001C080E05BDE809181004F
:1005A000803111F481E001C080E05FCE10928300C1
:1005B0001092820081DD90937900809378001092F0
:1005C000800010927F0088E080938100B7D18093F3
:1005D0007600D4DF81E025CECF93DF931CDED82FC9
:1005E0001DDEE0918200F0918300E930F10508F012
:1005F00077C1ED5DFF4F09945FDD20917800309168
:100600007900821B930B803D974020F488E690E0B0
:1006100099DE14C051DD2091780030917900821B61
:10062000930B803A9F4028F46AE08091760029DE9F
:1006300005C042DD9093790080937800E9DD88233E
:1006400021F081E0809380002AC08091800088237F
:1006500031F1DEDD811123C0109280008091810094
:10066000883011F48AE003C08A30A1F480E18093DD
:1006700081008091810062D1809376001092800089
:1006800010927F007BDF81E0CCDD1092830010921E
:10069000820005C088E080938100C1E022C1B5DD01
:1006A000882321F081E080937F001AC180917F0030
:1006B000882309F415C1A9DDC82F811111C1109239
:1006C0007F00FADCDBD110927D0010927C0081E08B
:1006D00090E0909383008093820003C1CBD18093FC
:1006E0007E00EADC909379008093780082E090E0CD
:1006F000BEC06091810080917E00C3DD86DD8823CD
:1007000021F081E080937F002DC080917F008823BD
:1007100049F17EDDC82F811125C080917E00D8135C
:1007200013C0CADC2091780030917900821B930BB2
:1007300090937B0080937A00BFDC90937900809344
:10074000780083E090E007C0B7DC90937900809355
:10075000780084E090E09093830080938200109270
:100760007F00BFC0A9DC2091780030917900821B06
:10077000930B8131974208F4B3C09EDC90937900CB
:100780008093780085E090E072C08CE790E0DADD3D
:1007900093DC2091780030917900821B930B813D8E
:1007A000974008F49DC080917A0090917B0068EE9C
:1007B00073E00BD180917700680F60937700809190
:1007C0007C008F5F80937C008831B0F01BC088E78D
:1007D00090E0B8DD71DC2091780030917900821BC7
:1007E000930B813D974008F47BC080917D008F5F23
:1007F00080937D00833030F481E090E038C08CE657
:1008000090E0E7CF59DC909379008093780086E000
:1008100090E02DC08091770090917600981718F4A1
:100820006091810078D087E090E021C045DC209184
:10083000780030917900821B930B883E934018F426
:1008400084E790E00CC038DC20917800309179008A
:10085000821B930B803D974020F480E790E072DD8F
:100860003FC010927F001092800088E090E090934B
:1008700083008093820034C06AE08091770001DDBC
:10088000C7DC882321F081E08093800012C0809132
:100890008000882371F0BCDC81110BC010928000B5
:1008A0000BDC909379008093780010928300109273
:1008B0008200ABDC8111F6CE80917F00882381F02D
:1008C000A4DCC82F81110CC010927F00F5DB90933F
:1008D000790080937800109283001092820001C00A
:1008E000C0E08C2FDF91CF91089581E090E0D1D0CE
:1008F000823481F060E082E090E0D2D060E083E07A
:1009000090E0CED060E084E090E0CAD062E481E084
:1009100090E0C6C00895683021F4682F82E090E02E
:100920000BC06A3021F4682F83E090E005C060318D
:1009300021F4682F84E090E0B3C00895883019F462
:1009400082E090E009C08A3019F483E090E004C0AE
:10095000803119F484E090E09CC080E0089510920A
:1009600085001092840033DCACDBBFDF78941092FA
:100970006500109264009CDDC1E0D0E080916400CD
:1009800090916500009719F0019751F00CC098DD27
:100990008823A1F3D0936500C093640007DEEECFF7
:1009A0001BDE882359F3109265001092640080DDED
:1009B000E5CF991B79E004C0991F961708F0961BA4
:1009C000881F7A95C9F780950895AA1BBB1B51E132
:1009D00007C0AA1FBB1FA617B70710F0A61BB70BAF
:1009E000881F991F5A95A9F780959095BC01CD0154
:1009F0000895A0E0B0E0EEEFF4E09EC0EC01688165
:100A000079818A819B81611571058105910521F4A8
:100A100064E279ED8BE597E02DE133EF41E050E0C2
:100A20004CD049015A0127EA31E440E050E061D05E
:100A300069017A01C501B4012CEE34EF4FEF5FEF8D
:100A400058D0022F132F9A01D701C601800F911F92
:100A5000A21FB31FB7FF03C00197A109B048888345
:100A60009983AA83BB839F77CDB7DEB7ECE080C0C4
:100A7000C0DF089580E690E0BCDF0895A0E0B0E01C
:100A80008093600090936100A0936200B093630034
:100A90000895E199FECF8EBBE09A99278DB3089512
:100AA000262FE199FECF1CBA8EBB2DBB0FB6F89452
:100AB000E29AE19A0FBE01960895052E97FB16F46F
:100AC00000940FD057FD05D068D007FC02D046F443
:100AD00008C050954095309521953F4F4F4F5F4F3F
:100AE000089590958095709561957F4F8F4F9F4F9A
:100AF000089568940013E894A0E0B0E0E1E8F5E020
:100B00001DC0EFEFE7F959016A015E23550FEE08AA
:100B1000FE2C87019B01AC019E23990F660B762F5B
:100B2000CB015DD0CDB7DEB7EAE024C02F923F9273
:100B30004F925F926F927F928F929F92AF92BF92ED
:100B4000CF92DF92EF92FF920F931F93CF93DF9399
:100B5000CDB7DEB7CA1BDB0B0FB6F894DEBF0FBEF6
:100B6000CDBF09942A88398848885F846E847D8443
:100B70008C849B84AA84B984C884DF80EE80FD8045
:100B80000C811B81AA81B981CE0FD11D0FB6F894BB
:100B9000DEBF0FBECDBFED010895A1E21A2EAA1B44
:100BA000BB1BFD010DC0AA1FBB1FEE1FFF1FA2171D
:100BB000B307E407F50720F0A21BB30BE40BF50B1A
:100BC000661F771F881F991F1A9469F760957095A3
:100BD000809590959B01AC01BD01CF010895DF93F5
:100BE000CF939F92A0E49A2E0024D001E001F0015F
:100BF00016950795F794E794D794C794B794A7945C
:100C000048F41068A20FB31FC41FD51FE61FF71FBB
:100C1000081E191E220F331F441F551F661F771F02
:100C2000881F991F9A9421F79D01AE01BF01C00151
:0E0C300011249F90CF91DF910895F894FFCF8B
:040C3E0001000000B1
:00000001FF
